{
  "_format": "hh-sol-artifact-1",
  "contractName": "NFTMarketplace",
  "sourceName": "contracts/NFTMarketplace.sol",
  "abi": [
    {
      "inputs": [],
      "stateMutability": "nonpayable",
      "type": "constructor"
    },
    {
      "inputs": [],
      "name": "NFT_AlreadyOnSale",
      "type": "error"
    },
    {
      "inputs": [],
      "name": "NFT_PriceGreaterThanOne",
      "type": "error"
    },
    {
      "inputs": [],
      "name": "NFT_URI_NotValid",
      "type": "error"
    },
    {
      "inputs": [],
      "name": "NotForSale",
      "type": "error"
    },
    {
      "inputs": [],
      "name": "NotNFTOwnerAddress",
      "type": "error"
    },
    {
      "inputs": [],
      "name": "Not_EnoughBalance",
      "type": "error"
    },
    {
      "inputs": [],
      "name": "PriceShouldBeEqual",
      "type": "error"
    },
    {
      "inputs": [],
      "name": "Transfer_Failed",
      "type": "error"
    },
    {
      "anonymous": false,
      "inputs": [
        {
          "indexed": true,
          "internalType": "address",
          "name": "owner",
          "type": "address"
        },
        {
          "indexed": true,
          "internalType": "address",
          "name": "approved",
          "type": "address"
        },
        {
          "indexed": true,
          "internalType": "uint256",
          "name": "tokenId",
          "type": "uint256"
        }
      ],
      "name": "Approval",
      "type": "event"
    },
    {
      "anonymous": false,
      "inputs": [
        {
          "indexed": true,
          "internalType": "address",
          "name": "owner",
          "type": "address"
        },
        {
          "indexed": true,
          "internalType": "address",
          "name": "operator",
          "type": "address"
        },
        {
          "indexed": false,
          "internalType": "bool",
          "name": "approved",
          "type": "bool"
        }
      ],
      "name": "ApprovalForAll",
      "type": "event"
    },
    {
      "anonymous": false,
      "inputs": [
        {
          "indexed": false,
          "internalType": "uint256",
          "name": "_fromTokenId",
          "type": "uint256"
        },
        {
          "indexed": false,
          "internalType": "uint256",
          "name": "_toTokenId",
          "type": "uint256"
        }
      ],
      "name": "BatchMetadataUpdate",
      "type": "event"
    },
    {
      "anonymous": false,
      "inputs": [
        {
          "indexed": false,
          "internalType": "uint256",
          "name": "_tokenId",
          "type": "uint256"
        }
      ],
      "name": "MetadataUpdate",
      "type": "event"
    },
    {
      "anonymous": false,
      "inputs": [
        {
          "indexed": false,
          "internalType": "uint256",
          "name": "tokenId",
          "type": "uint256"
        },
        {
          "indexed": false,
          "internalType": "address",
          "name": "owner",
          "type": "address"
        },
        {
          "indexed": false,
          "internalType": "uint256",
          "name": "price",
          "type": "uint256"
        }
      ],
      "name": "NFT_Listed",
      "type": "event"
    },
    {
      "anonymous": false,
      "inputs": [
        {
          "indexed": false,
          "internalType": "address",
          "name": "owner",
          "type": "address"
        },
        {
          "indexed": false,
          "internalType": "uint256",
          "name": "tokenId",
          "type": "uint256"
        },
        {
          "indexed": false,
          "internalType": "string",
          "name": "uri",
          "type": "string"
        }
      ],
      "name": "NFT_Minted",
      "type": "event"
    },
    {
      "anonymous": false,
      "inputs": [
        {
          "indexed": false,
          "internalType": "address",
          "name": "owner",
          "type": "address"
        },
        {
          "indexed": false,
          "internalType": "address",
          "name": "buyer",
          "type": "address"
        },
        {
          "indexed": false,
          "internalType": "uint256",
          "name": "tokenId",
          "type": "uint256"
        }
      ],
      "name": "NFT_Tranferred",
      "type": "event"
    },
    {
      "anonymous": false,
      "inputs": [
        {
          "indexed": true,
          "internalType": "address",
          "name": "previousOwner",
          "type": "address"
        },
        {
          "indexed": true,
          "internalType": "address",
          "name": "newOwner",
          "type": "address"
        }
      ],
      "name": "OwnershipTransferred",
      "type": "event"
    },
    {
      "anonymous": false,
      "inputs": [
        {
          "indexed": true,
          "internalType": "address",
          "name": "from",
          "type": "address"
        },
        {
          "indexed": true,
          "internalType": "address",
          "name": "to",
          "type": "address"
        },
        {
          "indexed": true,
          "internalType": "uint256",
          "name": "tokenId",
          "type": "uint256"
        }
      ],
      "name": "Transfer",
      "type": "event"
    },
    {
      "inputs": [
        {
          "internalType": "address",
          "name": "to",
          "type": "address"
        },
        {
          "internalType": "uint256",
          "name": "tokenId",
          "type": "uint256"
        }
      ],
      "name": "approve",
      "outputs": [],
      "stateMutability": "nonpayable",
      "type": "function"
    },
    {
      "inputs": [
        {
          "internalType": "address",
          "name": "owner",
          "type": "address"
        }
      ],
      "name": "balanceOf",
      "outputs": [
        {
          "internalType": "uint256",
          "name": "",
          "type": "uint256"
        }
      ],
      "stateMutability": "view",
      "type": "function"
    },
    {
      "inputs": [
        {
          "internalType": "uint256",
          "name": "tokenId",
          "type": "uint256"
        }
      ],
      "name": "buyNFT",
      "outputs": [],
      "stateMutability": "payable",
      "type": "function"
    },
    {
      "inputs": [],
      "name": "getAllListedNFT",
      "outputs": [
        {
          "components": [
            {
              "internalType": "address",
              "name": "owner",
              "type": "address"
            },
            {
              "internalType": "uint256",
              "name": "tokenId",
              "type": "uint256"
            },
            {
              "internalType": "string",
              "name": "uri",
              "type": "string"
            },
            {
              "internalType": "uint256",
              "name": "price",
              "type": "uint256"
            }
          ],
          "internalType": "struct NFTMarketplace.ListedNFTStruct[]",
          "name": "",
          "type": "tuple[]"
        }
      ],
      "stateMutability": "view",
      "type": "function"
    },
    {
      "inputs": [
        {
          "internalType": "uint256",
          "name": "tokenId",
          "type": "uint256"
        }
      ],
      "name": "getApproved",
      "outputs": [
        {
          "internalType": "address",
          "name": "",
          "type": "address"
        }
      ],
      "stateMutability": "view",
      "type": "function"
    },
    {
      "inputs": [
        {
          "internalType": "address",
          "name": "owner",
          "type": "address"
        },
        {
          "internalType": "address",
          "name": "operator",
          "type": "address"
        }
      ],
      "name": "isApprovedForAll",
      "outputs": [
        {
          "internalType": "bool",
          "name": "",
          "type": "bool"
        }
      ],
      "stateMutability": "view",
      "type": "function"
    },
    {
      "inputs": [
        {
          "internalType": "uint256",
          "name": "tokenId",
          "type": "uint256"
        },
        {
          "internalType": "uint256",
          "name": "price",
          "type": "uint256"
        }
      ],
      "name": "listNFT",
      "outputs": [],
      "stateMutability": "nonpayable",
      "type": "function"
    },
    {
      "inputs": [
        {
          "internalType": "string",
          "name": "_uri",
          "type": "string"
        }
      ],
      "name": "mintNFT",
      "outputs": [
        {
          "internalType": "uint256",
          "name": "_tokenId",
          "type": "uint256"
        }
      ],
      "stateMutability": "nonpayable",
      "type": "function"
    },
    {
      "inputs": [],
      "name": "name",
      "outputs": [
        {
          "internalType": "string",
          "name": "",
          "type": "string"
        }
      ],
      "stateMutability": "view",
      "type": "function"
    },
    {
      "inputs": [
        {
          "internalType": "uint256",
          "name": "tokenId",
          "type": "uint256"
        }
      ],
      "name": "nftListing",
      "outputs": [
        {
          "internalType": "address",
          "name": "owner",
          "type": "address"
        },
        {
          "internalType": "uint256",
          "name": "tokenId",
          "type": "uint256"
        },
        {
          "internalType": "uint256",
          "name": "price",
          "type": "uint256"
        },
        {
          "internalType": "bool",
          "name": "isForSale",
          "type": "bool"
        }
      ],
      "stateMutability": "view",
      "type": "function"
    },
    {
      "inputs": [],
      "name": "owner",
      "outputs": [
        {
          "internalType": "address",
          "name": "",
          "type": "address"
        }
      ],
      "stateMutability": "view",
      "type": "function"
    },
    {
      "inputs": [
        {
          "internalType": "uint256",
          "name": "tokenId",
          "type": "uint256"
        }
      ],
      "name": "ownerOf",
      "outputs": [
        {
          "internalType": "address",
          "name": "",
          "type": "address"
        }
      ],
      "stateMutability": "view",
      "type": "function"
    },
    {
      "inputs": [],
      "name": "renounceOwnership",
      "outputs": [],
      "stateMutability": "nonpayable",
      "type": "function"
    },
    {
      "inputs": [
        {
          "internalType": "address",
          "name": "from",
          "type": "address"
        },
        {
          "internalType": "address",
          "name": "to",
          "type": "address"
        },
        {
          "internalType": "uint256",
          "name": "tokenId",
          "type": "uint256"
        }
      ],
      "name": "safeTransferFrom",
      "outputs": [],
      "stateMutability": "nonpayable",
      "type": "function"
    },
    {
      "inputs": [
        {
          "internalType": "address",
          "name": "from",
          "type": "address"
        },
        {
          "internalType": "address",
          "name": "to",
          "type": "address"
        },
        {
          "internalType": "uint256",
          "name": "tokenId",
          "type": "uint256"
        },
        {
          "internalType": "bytes",
          "name": "data",
          "type": "bytes"
        }
      ],
      "name": "safeTransferFrom",
      "outputs": [],
      "stateMutability": "nonpayable",
      "type": "function"
    },
    {
      "inputs": [
        {
          "internalType": "address",
          "name": "operator",
          "type": "address"
        },
        {
          "internalType": "bool",
          "name": "approved",
          "type": "bool"
        }
      ],
      "name": "setApprovalForAll",
      "outputs": [],
      "stateMutability": "nonpayable",
      "type": "function"
    },
    {
      "inputs": [
        {
          "internalType": "bytes4",
          "name": "interfaceId",
          "type": "bytes4"
        }
      ],
      "name": "supportsInterface",
      "outputs": [
        {
          "internalType": "bool",
          "name": "",
          "type": "bool"
        }
      ],
      "stateMutability": "view",
      "type": "function"
    },
    {
      "inputs": [],
      "name": "symbol",
      "outputs": [
        {
          "internalType": "string",
          "name": "",
          "type": "string"
        }
      ],
      "stateMutability": "view",
      "type": "function"
    },
    {
      "inputs": [
        {
          "internalType": "uint256",
          "name": "tokenId",
          "type": "uint256"
        }
      ],
      "name": "tokenURI",
      "outputs": [
        {
          "internalType": "string",
          "name": "",
          "type": "string"
        }
      ],
      "stateMutability": "view",
      "type": "function"
    },
    {
      "inputs": [
        {
          "internalType": "address",
          "name": "from",
          "type": "address"
        },
        {
          "internalType": "address",
          "name": "to",
          "type": "address"
        },
        {
          "internalType": "uint256",
          "name": "tokenId",
          "type": "uint256"
        }
      ],
      "name": "transferFrom",
      "outputs": [],
      "stateMutability": "nonpayable",
      "type": "function"
    },
    {
      "inputs": [
        {
          "internalType": "address",
          "name": "newOwner",
          "type": "address"
        }
      ],
      "name": "transferOwnership",
      "outputs": [],
      "stateMutability": "nonpayable",
      "type": "function"
    },
    {
      "inputs": [
        {
          "internalType": "address",
          "name": "_owner",
          "type": "address"
        }
      ],
      "name": "userOwnedNFT",
      "outputs": [
        {
          "components": [
            {
              "internalType": "uint256",
              "name": "tokenId",
              "type": "uint256"
            },
            {
              "internalType": "string",
              "name": "tokenURI",
              "type": "string"
            }
          ],
          "internalType": "struct NFTMarketplace.UserNFT[]",
          "name": "",
          "type": "tuple[]"
        }
      ],
      "stateMutability": "view",
      "type": "function"
    },
    {
      "inputs": [],
      "name": "withdraw",
      "outputs": [],
      "stateMutability": "nonpayable",
      "type": "function"
    }
  ],
  "bytecode": "0x60806040523480156200001157600080fd5b506040518060400160405280600581526020017f544f4b454e0000000000000000000000000000000000000000000000000000008152506040518060400160405280600381526020017f4d544b000000000000000000000000000000000000000000000000000000000081525081600090816200008f919062000412565b508060019081620000a1919062000412565b505050620000c4620000b8620000ca60201b60201c565b620000d260201b60201c565b620004f9565b600033905090565b6000600760009054906101000a900473ffffffffffffffffffffffffffffffffffffffff16905081600760006101000a81548173ffffffffffffffffffffffffffffffffffffffff021916908373ffffffffffffffffffffffffffffffffffffffff1602179055508173ffffffffffffffffffffffffffffffffffffffff168173ffffffffffffffffffffffffffffffffffffffff167f8be0079c531659141344cd1fd0a4f28419497f9722a3daafe3b4186f6b6457e060405160405180910390a35050565b600081519050919050565b7f4e487b7100000000000000000000000000000000000000000000000000000000600052604160045260246000fd5b7f4e487b7100000000000000000000000000000000000000000000000000000000600052602260045260246000fd5b600060028204905060018216806200021a57607f821691505b60208210810362000230576200022f620001d2565b5b50919050565b60008190508160005260206000209050919050565b60006020601f8301049050919050565b600082821b905092915050565b6000600883026200029a7fffffffffffffffffffffffffffffffffffffffffffffffffffffffffffffffff826200025b565b620002a686836200025b565b95508019841693508086168417925050509392505050565b6000819050919050565b6000819050919050565b6000620002f3620002ed620002e784620002be565b620002c8565b620002be565b9050919050565b6000819050919050565b6200030f83620002d2565b620003276200031e82620002fa565b84845462000268565b825550505050565b600090565b6200033e6200032f565b6200034b81848462000304565b505050565b5b8181101562000373576200036760008262000334565b60018101905062000351565b5050565b601f821115620003c2576200038c8162000236565b62000397846200024b565b81016020851015620003a7578190505b620003bf620003b6856200024b565b83018262000350565b50505b505050565b600082821c905092915050565b6000620003e760001984600802620003c7565b1980831691505092915050565b6000620004028383620003d4565b9150826002028217905092915050565b6200041d8262000198565b67ffffffffffffffff811115620004395762000438620001a3565b5b62000445825462000201565b6200045282828562000377565b600060209050601f8311600181146200048a576000841562000475578287015190505b620004818582620003f4565b865550620004f1565b601f1984166200049a8662000236565b60005b82811015620004c4578489015182556001820191506020850194506020810190506200049d565b86831015620004e45784890151620004e0601f891682620003d4565b8355505b6001600288020188555050505b505050505050565b61462f80620005096000396000f3fe6080604052600436106101405760003560e01c806370a08231116100b6578063a22cb4651161006f578063a22cb46514610450578063b88d4fde14610479578063c87b56dd146104a2578063e985e9c5146104df578063f2fde38b1461051c578063fb37e8831461054557610140565b806370a0823114610352578063715018a61461038f57806371925657146103a65780638da5cb5b146103d157806394383f14146103fc57806395d89b411461042557610140565b806323b872dd1161010857806323b872dd146102505780633ccfd60b1461027957806342842e0e1461029057806351ed8288146102b95780636352211e146102d55780636fa35d961461031257610140565b806301ffc9a714610145578063037f2f5f1461018257806306fdde03146101bf578063081812fc146101ea578063095ea7b314610227575b600080fd5b34801561015157600080fd5b5061016c60048036038101906101679190612e04565b610582565b6040516101799190612e4c565b60405180910390f35b34801561018e57600080fd5b506101a960048036038101906101a49190612ec5565b6105e3565b6040516101b6919061309a565b60405180910390f35b3480156101cb57600080fd5b506101d461082f565b6040516101e19190613106565b60405180910390f35b3480156101f657600080fd5b50610211600480360381019061020c9190613154565b6108c1565b60405161021e9190613190565b60405180910390f35b34801561023357600080fd5b5061024e600480360381019061024991906131ab565b610907565b005b34801561025c57600080fd5b50610277600480360381019061027291906131eb565b610a1e565b005b34801561028557600080fd5b5061028e610a7e565b005b34801561029c57600080fd5b506102b760048036038101906102b291906131eb565b610b79565b005b6102d360048036038101906102ce9190613154565b610b99565b005b3480156102e157600080fd5b506102fc60048036038101906102f79190613154565b610ef8565b6040516103099190613190565b60405180910390f35b34801561031e57600080fd5b5061033960048036038101906103349190613154565b610f7e565b604051610349949392919061324d565b60405180910390f35b34801561035e57600080fd5b5061037960048036038101906103749190612ec5565b610fdb565b6040516103869190613292565b60405180910390f35b34801561039b57600080fd5b506103a4611092565b005b3480156103b257600080fd5b506103bb6110a6565b6040516103c891906133e1565b60405180910390f35b3480156103dd57600080fd5b506103e66112c2565b6040516103f39190613190565b60405180910390f35b34801561040857600080fd5b50610423600480360381019061041e9190613403565b6112ec565b005b34801561043157600080fd5b5061043a61153c565b6040516104479190613106565b60405180910390f35b34801561045c57600080fd5b506104776004803603810190610472919061346f565b6115ce565b005b34801561048557600080fd5b506104a0600480360381019061049b91906135e4565b6115e4565b005b3480156104ae57600080fd5b506104c960048036038101906104c49190613154565b611646565b6040516104d69190613106565b60405180910390f35b3480156104eb57600080fd5b5061050660048036038101906105019190613667565b611758565b6040516105139190612e4c565b60405180910390f35b34801561052857600080fd5b50610543600480360381019061053e9190612ec5565b6117ec565b005b34801561055157600080fd5b5061056c60048036038101906105679190613748565b61186f565b6040516105799190613292565b60405180910390f35b6000634906490660e01b7bffffffffffffffffffffffffffffffffffffffffffffffffffffffff1916827bffffffffffffffffffffffffffffffffffffffffffffffffffffffff191614806105dc57506105db8261197c565b5b9050919050565b606060006105f083610fdb565b11610630576040517f08c379a0000000000000000000000000000000000000000000000000000000008152600401610627906137dd565b60405180910390fd5b6000610679600c60008573ffffffffffffffffffffffffffffffffffffffff1673ffffffffffffffffffffffffffffffffffffffff168152602001908152602001600020611a5e565b67ffffffffffffffff811115610692576106916134b9565b5b6040519080825280602002602001820160405280156106c05781602001602082028036833780820191505090505b509050600061070c600c60008673ffffffffffffffffffffffffffffffffffffffff1673ffffffffffffffffffffffffffffffffffffffff168152602001908152602001600020611a5e565b67ffffffffffffffff811115610725576107246134b9565b5b60405190808252806020026020018201604052801561075e57816020015b61074b612d40565b8152602001906001900390816107435790505b5090506107a8600c60008673ffffffffffffffffffffffffffffffffffffffff1673ffffffffffffffffffffffffffffffffffffffff168152602001908152602001600020611a73565b915060005b82518110156108245760008382815181106107cb576107ca6137fd565b5b6020026020010151905060405180604001604052808281526020016107ef83611646565b815250838381518110610805576108046137fd565b5b602002602001018190525050808061081c9061385b565b9150506107ad565b508092505050919050565b60606000805461083e906138d2565b80601f016020809104026020016040519081016040528092919081815260200182805461086a906138d2565b80156108b75780601f1061088c576101008083540402835291602001916108b7565b820191906000526020600020905b81548152906001019060200180831161089a57829003601f168201915b5050505050905090565b60006108cc82611a94565b6004600083815260200190815260200160002060009054906101000a900473ffffffffffffffffffffffffffffffffffffffff169050919050565b600061091282610ef8565b90508073ffffffffffffffffffffffffffffffffffffffff168373ffffffffffffffffffffffffffffffffffffffff1603610982576040517f08c379a000000000000000000000000000000000000000000000000000000000815260040161097990613975565b60405180910390fd5b8073ffffffffffffffffffffffffffffffffffffffff166109a1611adf565b73ffffffffffffffffffffffffffffffffffffffff1614806109d057506109cf816109ca611adf565b611758565b5b610a0f576040517f08c379a0000000000000000000000000000000000000000000000000000000008152600401610a0690613a07565b60405180910390fd5b610a198383611ae7565b505050565b610a2f610a29611adf565b82611ba0565b610a6e576040517f08c379a0000000000000000000000000000000000000000000000000000000008152600401610a6590613a99565b60405180910390fd5b610a79838383611c35565b505050565b610a86611f2e565b6000610a906112c2565b9050600047905060008103610ad1576040517f66f94bd000000000000000000000000000000000000000000000000000000000815260040160405180910390fd5b60008273ffffffffffffffffffffffffffffffffffffffff1682604051610af790613aea565b60006040518083038185875af1925050503d8060008114610b34576040519150601f19603f3d011682016040523d82523d6000602084013e610b39565b606091505b5050905080610b74576040517f90914fd500000000000000000000000000000000000000000000000000000000815260040160405180910390fd5b505050565b610b94838383604051806020016040528060008152506115e4565b505050565b6000600b60008381526020019081526020016000206040518060800160405290816000820160009054906101000a900473ffffffffffffffffffffffffffffffffffffffff1673ffffffffffffffffffffffffffffffffffffffff1673ffffffffffffffffffffffffffffffffffffffff16815260200160018201548152602001600282015481526020016003820160009054906101000a900460ff1615151515815250509050600015158160600151151503610c82576040517f1d99ddbf00000000000000000000000000000000000000000000000000000000815260040160405180910390fd5b80604001513414610cbf576040517fd5750ab100000000000000000000000000000000000000000000000000000000815260040160405180910390fd5b600b6000838152602001908152602001600020600080820160006101000a81549073ffffffffffffffffffffffffffffffffffffffff0219169055600182016000905560028201600090556003820160006101000a81549060ff021916905550506000610d2b34611fac565b905060008260000151905060008173ffffffffffffffffffffffffffffffffffffffff1683604051610d5c90613aea565b60006040518083038185875af1925050503d8060008114610d99576040519150601f19603f3d011682016040523d82523d6000602084013e610d9e565b606091505b5050905080610dd9576040517f90914fd500000000000000000000000000000000000000000000000000000000815260040160405180910390fd5b610deb30610de5611adf565b87611c35565b610e4085600c6000876000015173ffffffffffffffffffffffffffffffffffffffff1673ffffffffffffffffffffffffffffffffffffffff168152602001908152602001600020611fce90919063ffffffff16565b50610e9985600c6000610e51611adf565b73ffffffffffffffffffffffffffffffffffffffff1673ffffffffffffffffffffffffffffffffffffffff168152602001908152602001600020611fe890919063ffffffff16565b50610eae856009611fce90919063ffffffff16565b507f2d4637c1dd84a79c9a2987b7abb270b51872f09ac6b222cd590b4ca018ab78a382610ed9611adf565b87604051610ee993929190613aff565b60405180910390a15050505050565b600080610f0483612002565b9050600073ffffffffffffffffffffffffffffffffffffffff168173ffffffffffffffffffffffffffffffffffffffff1603610f75576040517f08c379a0000000000000000000000000000000000000000000000000000000008152600401610f6c90613b82565b60405180910390fd5b80915050919050565b600b6020528060005260406000206000915090508060000160009054906101000a900473ffffffffffffffffffffffffffffffffffffffff16908060010154908060020154908060030160009054906101000a900460ff16905084565b60008073ffffffffffffffffffffffffffffffffffffffff168273ffffffffffffffffffffffffffffffffffffffff160361104b576040517f08c379a000000000000000000000000000000000000000000000000000000000815260040161104290613c14565b60405180910390fd5b600360008373ffffffffffffffffffffffffffffffffffffffff1673ffffffffffffffffffffffffffffffffffffffff168152602001908152602001600020549050919050565b61109a611f2e565b6110a4600061203f565b565b606060006110b46009611a5e565b67ffffffffffffffff8111156110cd576110cc6134b9565b5b6040519080825280602002602001820160405280156110fb5781602001602082028036833780820191505090505b509050600061110a6009611a5e565b67ffffffffffffffff811115611123576111226134b9565b5b60405190808252806020026020018201604052801561115c57816020015b611149612d5a565b8152602001906001900390816111415790505b5090506111696009611a73565b915060005b81518110156112b9576000600b60008584815181106111905761118f6137fd565b5b602002602001015181526020019081526020016000206040518060800160405290816000820160009054906101000a900473ffffffffffffffffffffffffffffffffffffffff1673ffffffffffffffffffffffffffffffffffffffff1673ffffffffffffffffffffffffffffffffffffffff16815260200160018201548152602001600282015481526020016003820160009054906101000a900460ff16151515158152505090506040518060800160405280826000015173ffffffffffffffffffffffffffffffffffffffff1681526020018260200151815260200161127a8360200151611646565b8152602001826040015181525083838151811061129a576112996137fd565b5b60200260200101819052505080806112b19061385b565b91505061116e565b50809250505090565b6000600760009054906101000a900473ffffffffffffffffffffffffffffffffffffffff16905090565b816112f681610ef8565b73ffffffffffffffffffffffffffffffffffffffff163373ffffffffffffffffffffffffffffffffffffffff160361150557670de0b6b3a764000082101561136a576040517fa4ca726600000000000000000000000000000000000000000000000000000000815260040160405180910390fd5b600b600084815260200190815260200160002060030160009054906101000a900460ff16156113c5576040517f60c2c7ac00000000000000000000000000000000000000000000000000000000815260040160405180910390fd5b60405180608001604052806113d8611adf565b73ffffffffffffffffffffffffffffffffffffffff16815260200184815260200183815260200160011515815250600b600085815260200190815260200160002060008201518160000160006101000a81548173ffffffffffffffffffffffffffffffffffffffff021916908373ffffffffffffffffffffffffffffffffffffffff160217905550602082015181600101556040820151816002015560608201518160030160006101000a81548160ff0219169083151502179055509050506114a96114a2611adf565b3085610a1e565b6114bd836009611fe890919063ffffffff16565b507fbae67bf1f977d8818dd7b22e623a9d2c2325b78078491628a09d5d16de5965ac836114e8611adf565b846040516114f893929190613c34565b60405180910390a1611537565b6040517f3c5f159800000000000000000000000000000000000000000000000000000000815260040160405180910390fd5b505050565b60606001805461154b906138d2565b80601f0160208091040260200160405190810160405280929190818152602001828054611577906138d2565b80156115c45780601f10611599576101008083540402835291602001916115c4565b820191906000526020600020905b8154815290600101906020018083116115a757829003601f168201915b5050505050905090565b6115e06115d9611adf565b8383612105565b5050565b6115f56115ef611adf565b83611ba0565b611634576040517f08c379a000000000000000000000000000000000000000000000000000000000815260040161162b90613a99565b60405180910390fd5b61164084848484612271565b50505050565b606061165182611a94565b6000600660008481526020019081526020016000208054611671906138d2565b80601f016020809104026020016040519081016040528092919081815260200182805461169d906138d2565b80156116ea5780601f106116bf576101008083540402835291602001916116ea565b820191906000526020600020905b8154815290600101906020018083116116cd57829003601f168201915b5050505050905060006116fb6122cd565b90506000815103611710578192505050611753565b60008251111561174557808260405160200161172d929190613ca7565b60405160208183030381529060405292505050611753565b61174e846122e4565b925050505b919050565b6000600560008473ffffffffffffffffffffffffffffffffffffffff1673ffffffffffffffffffffffffffffffffffffffff16815260200190815260200160002060008373ffffffffffffffffffffffffffffffffffffffff1673ffffffffffffffffffffffffffffffffffffffff16815260200190815260200160002060009054906101000a900460ff16905092915050565b6117f4611f2e565b600073ffffffffffffffffffffffffffffffffffffffff168173ffffffffffffffffffffffffffffffffffffffff1603611863576040517f08c379a000000000000000000000000000000000000000000000000000000000815260040161185a90613d3d565b60405180910390fd5b61186c8161203f565b50565b6000808251036118ab576040517f97662fbb00000000000000000000000000000000000000000000000000000000815260040160405180910390fd5b6118b5600861234c565b6118bf6008612362565b90506118d26118cc611adf565b82612370565b6118dc818361238e565b61193481600c60006118ec611adf565b73ffffffffffffffffffffffffffffffffffffffff1673ffffffffffffffffffffffffffffffffffffffff168152602001908152602001600020611fe890919063ffffffff16565b507fd990853454a2ab524688602f418c4460df2288529c0a77305f178997f46791d261195e611adf565b828460405161196f93929190613d5d565b60405180910390a1919050565b60007f80ac58cd000000000000000000000000000000000000000000000000000000007bffffffffffffffffffffffffffffffffffffffffffffffffffffffff1916827bffffffffffffffffffffffffffffffffffffffffffffffffffffffff19161480611a4757507f5b5e139f000000000000000000000000000000000000000000000000000000007bffffffffffffffffffffffffffffffffffffffffffffffffffffffff1916827bffffffffffffffffffffffffffffffffffffffffffffffffffffffff1916145b80611a575750611a5682612432565b5b9050919050565b6000611a6c8260000161249c565b9050919050565b60606000611a83836000016124ad565b905060608190508092505050919050565b611a9d81612509565b611adc576040517f08c379a0000000000000000000000000000000000000000000000000000000008152600401611ad390613b82565b60405180910390fd5b50565b600033905090565b816004600083815260200190815260200160002060006101000a81548173ffffffffffffffffffffffffffffffffffffffff021916908373ffffffffffffffffffffffffffffffffffffffff160217905550808273ffffffffffffffffffffffffffffffffffffffff16611b5a83610ef8565b73ffffffffffffffffffffffffffffffffffffffff167f8c5be1e5ebec7d5bd14f71427d1e84f3dd0314c0f7b2291e5b200ac8c7c3b92560405160405180910390a45050565b600080611bac83610ef8565b90508073ffffffffffffffffffffffffffffffffffffffff168473ffffffffffffffffffffffffffffffffffffffff161480611bee5750611bed8185611758565b5b80611c2c57508373ffffffffffffffffffffffffffffffffffffffff16611c14846108c1565b73ffffffffffffffffffffffffffffffffffffffff16145b91505092915050565b8273ffffffffffffffffffffffffffffffffffffffff16611c5582610ef8565b73ffffffffffffffffffffffffffffffffffffffff1614611cab576040517f08c379a0000000000000000000000000000000000000000000000000000000008152600401611ca290613e0d565b60405180910390fd5b600073ffffffffffffffffffffffffffffffffffffffff168273ffffffffffffffffffffffffffffffffffffffff1603611d1a576040517f08c379a0000000000000000000000000000000000000000000000000000000008152600401611d1190613e9f565b60405180910390fd5b611d27838383600161254a565b8273ffffffffffffffffffffffffffffffffffffffff16611d4782610ef8565b73ffffffffffffffffffffffffffffffffffffffff1614611d9d576040517f08c379a0000000000000000000000000000000000000000000000000000000008152600401611d9490613e0d565b60405180910390fd5b6004600082815260200190815260200160002060006101000a81549073ffffffffffffffffffffffffffffffffffffffff02191690556001600360008573ffffffffffffffffffffffffffffffffffffffff1673ffffffffffffffffffffffffffffffffffffffff168152602001908152602001600020600082825403925050819055506001600360008473ffffffffffffffffffffffffffffffffffffffff1673ffffffffffffffffffffffffffffffffffffffff16815260200190815260200160002060008282540192505081905550816002600083815260200190815260200160002060006101000a81548173ffffffffffffffffffffffffffffffffffffffff021916908373ffffffffffffffffffffffffffffffffffffffff160217905550808273ffffffffffffffffffffffffffffffffffffffff168473ffffffffffffffffffffffffffffffffffffffff167fddf252ad1be2c89b69c2b068fc378daa952ba7f163c4a11628f55a4df523b3ef60405160405180910390a4611f298383836001612550565b505050565b611f36611adf565b73ffffffffffffffffffffffffffffffffffffffff16611f546112c2565b73ffffffffffffffffffffffffffffffffffffffff1614611faa576040517f08c379a0000000000000000000000000000000000000000000000000000000008152600401611fa190613f0b565b60405180910390fd5b565b60006064606383611fbd9190613f2b565b611fc79190613f9c565b9050919050565b6000611fe0836000018360001b612556565b905092915050565b6000611ffa836000018360001b61266a565b905092915050565b60006002600083815260200190815260200160002060009054906101000a900473ffffffffffffffffffffffffffffffffffffffff169050919050565b6000600760009054906101000a900473ffffffffffffffffffffffffffffffffffffffff16905081600760006101000a81548173ffffffffffffffffffffffffffffffffffffffff021916908373ffffffffffffffffffffffffffffffffffffffff1602179055508173ffffffffffffffffffffffffffffffffffffffff168173ffffffffffffffffffffffffffffffffffffffff167f8be0079c531659141344cd1fd0a4f28419497f9722a3daafe3b4186f6b6457e060405160405180910390a35050565b8173ffffffffffffffffffffffffffffffffffffffff168373ffffffffffffffffffffffffffffffffffffffff1603612173576040517f08c379a000000000000000000000000000000000000000000000000000000000815260040161216a90614019565b60405180910390fd5b80600560008573ffffffffffffffffffffffffffffffffffffffff1673ffffffffffffffffffffffffffffffffffffffff16815260200190815260200160002060008473ffffffffffffffffffffffffffffffffffffffff1673ffffffffffffffffffffffffffffffffffffffff16815260200190815260200160002060006101000a81548160ff0219169083151502179055508173ffffffffffffffffffffffffffffffffffffffff168373ffffffffffffffffffffffffffffffffffffffff167f17307eab39ab6107e8899845ad3d59bd9653f200f220920489ca2b5937696c31836040516122649190612e4c565b60405180910390a3505050565b61227c848484611c35565b612288848484846126da565b6122c7576040517f08c379a00000000000000000000000000000000000000000000000000000000081526004016122be906140ab565b60405180910390fd5b50505050565b606060405180602001604052806000815250905090565b60606122ef82611a94565b60006122f96122cd565b905060008151116123195760405180602001604052806000815250612344565b8061232384612861565b604051602001612334929190613ca7565b6040516020818303038152906040525b915050919050565b6001816000016000828254019250508190555050565b600081600001549050919050565b61238a82826040518060200160405280600081525061292f565b5050565b61239782612509565b6123d6576040517f08c379a00000000000000000000000000000000000000000000000000000000081526004016123cd9061413d565b60405180910390fd5b806006600084815260200190815260200160002090816123f69190614309565b507ff8e1a15aba9398e019f0b49df1a4fde98ee17ae345cb5f6b5e2c27f5033e8ce7826040516124269190613292565b60405180910390a15050565b60007f01ffc9a7000000000000000000000000000000000000000000000000000000007bffffffffffffffffffffffffffffffffffffffffffffffffffffffff1916827bffffffffffffffffffffffffffffffffffffffffffffffffffffffff1916149050919050565b600081600001805490509050919050565b6060816000018054806020026020016040519081016040528092919081815260200182805480156124fd57602002820191906000526020600020905b8154815260200190600101908083116124e9575b50505050509050919050565b60008073ffffffffffffffffffffffffffffffffffffffff1661252b83612002565b73ffffffffffffffffffffffffffffffffffffffff1614159050919050565b50505050565b50505050565b6000808360010160008481526020019081526020016000205490506000811461265e57600060018261258891906143db565b90506000600186600001805490506125a091906143db565b905081811461260f5760008660000182815481106125c1576125c06137fd565b5b90600052602060002001549050808760000184815481106125e5576125e46137fd565b5b90600052602060002001819055508387600101600083815260200190815260200160002081905550505b856000018054806126235761262261440f565b5b600190038181906000526020600020016000905590558560010160008681526020019081526020016000206000905560019350505050612664565b60009150505b92915050565b6000612676838361298a565b6126cf5782600001829080600181540180825580915050600190039060005260206000200160009091909190915055826000018054905083600101600084815260200190815260200160002081905550600190506126d4565b600090505b92915050565b60006126fb8473ffffffffffffffffffffffffffffffffffffffff166129ad565b15612854578373ffffffffffffffffffffffffffffffffffffffff1663150b7a02612724611adf565b8786866040518563ffffffff1660e01b81526004016127469493929190614493565b6020604051808303816000875af192505050801561278257506040513d601f19601f8201168201806040525081019061277f91906144f4565b60015b612804573d80600081146127b2576040519150601f19603f3d011682016040523d82523d6000602084013e6127b7565b606091505b5060008151036127fc576040517f08c379a00000000000000000000000000000000000000000000000000000000081526004016127f3906140ab565b60405180910390fd5b805181602001fd5b63150b7a0260e01b7bffffffffffffffffffffffffffffffffffffffffffffffffffffffff1916817bffffffffffffffffffffffffffffffffffffffffffffffffffffffff191614915050612859565b600190505b949350505050565b606060006001612870846129d0565b01905060008167ffffffffffffffff81111561288f5761288e6134b9565b5b6040519080825280601f01601f1916602001820160405280156128c15781602001600182028036833780820191505090505b509050600082602001820190505b600115612924578080600190039150507f3031323334353637383961626364656600000000000000000000000000000000600a86061a8153600a858161291857612917613f6d565b5b049450600085036128cf575b819350505050919050565b6129398383612b23565b61294660008484846126da565b612985576040517f08c379a000000000000000000000000000000000000000000000000000000000815260040161297c906140ab565b60405180910390fd5b505050565b600080836001016000848152602001908152602001600020541415905092915050565b6000808273ffffffffffffffffffffffffffffffffffffffff163b119050919050565b600080600090507a184f03e93ff9f4daa797ed6e38ed64bf6a1f0100000000000000008310612a2e577a184f03e93ff9f4daa797ed6e38ed64bf6a1f0100000000000000008381612a2457612a23613f6d565b5b0492506040810190505b6d04ee2d6d415b85acef81000000008310612a6b576d04ee2d6d415b85acef81000000008381612a6157612a60613f6d565b5b0492506020810190505b662386f26fc100008310612a9a57662386f26fc100008381612a9057612a8f613f6d565b5b0492506010810190505b6305f5e1008310612ac3576305f5e1008381612ab957612ab8613f6d565b5b0492506008810190505b6127108310612ae8576127108381612ade57612add613f6d565b5b0492506004810190505b60648310612b0b5760648381612b0157612b00613f6d565b5b0492506002810190505b600a8310612b1a576001810190505b80915050919050565b600073ffffffffffffffffffffffffffffffffffffffff168273ffffffffffffffffffffffffffffffffffffffff1603612b92576040517f08c379a0000000000000000000000000000000000000000000000000000000008152600401612b899061456d565b60405180910390fd5b612b9b81612509565b15612bdb576040517f08c379a0000000000000000000000000000000000000000000000000000000008152600401612bd2906145d9565b60405180910390fd5b612be960008383600161254a565b612bf281612509565b15612c32576040517f08c379a0000000000000000000000000000000000000000000000000000000008152600401612c29906145d9565b60405180910390fd5b6001600360008473ffffffffffffffffffffffffffffffffffffffff1673ffffffffffffffffffffffffffffffffffffffff16815260200190815260200160002060008282540192505081905550816002600083815260200190815260200160002060006101000a81548173ffffffffffffffffffffffffffffffffffffffff021916908373ffffffffffffffffffffffffffffffffffffffff160217905550808273ffffffffffffffffffffffffffffffffffffffff16600073ffffffffffffffffffffffffffffffffffffffff167fddf252ad1be2c89b69c2b068fc378daa952ba7f163c4a11628f55a4df523b3ef60405160405180910390a4612d3c600083836001612550565b5050565b604051806040016040528060008152602001606081525090565b6040518060800160405280600073ffffffffffffffffffffffffffffffffffffffff1681526020016000815260200160608152602001600081525090565b6000604051905090565b600080fd5b600080fd5b60007fffffffff0000000000000000000000000000000000000000000000000000000082169050919050565b612de181612dac565b8114612dec57600080fd5b50565b600081359050612dfe81612dd8565b92915050565b600060208284031215612e1a57612e19612da2565b5b6000612e2884828501612def565b91505092915050565b60008115159050919050565b612e4681612e31565b82525050565b6000602082019050612e616000830184612e3d565b92915050565b600073ffffffffffffffffffffffffffffffffffffffff82169050919050565b6000612e9282612e67565b9050919050565b612ea281612e87565b8114612ead57600080fd5b50565b600081359050612ebf81612e99565b92915050565b600060208284031215612edb57612eda612da2565b5b6000612ee984828501612eb0565b91505092915050565b600081519050919050565b600082825260208201905092915050565b6000819050602082019050919050565b6000819050919050565b612f3181612f1e565b82525050565b600081519050919050565b600082825260208201905092915050565b60005b83811015612f71578082015181840152602081019050612f56565b60008484015250505050565b6000601f19601f8301169050919050565b6000612f9982612f37565b612fa38185612f42565b9350612fb3818560208601612f53565b612fbc81612f7d565b840191505092915050565b6000604083016000830151612fdf6000860182612f28565b5060208301518482036020860152612ff78282612f8e565b9150508091505092915050565b60006130108383612fc7565b905092915050565b6000602082019050919050565b600061303082612ef2565b61303a8185612efd565b93508360208202850161304c85612f0e565b8060005b8581101561308857848403895281516130698582613004565b945061307483613018565b925060208a01995050600181019050613050565b50829750879550505050505092915050565b600060208201905081810360008301526130b48184613025565b905092915050565b600082825260208201905092915050565b60006130d882612f37565b6130e281856130bc565b93506130f2818560208601612f53565b6130fb81612f7d565b840191505092915050565b6000602082019050818103600083015261312081846130cd565b905092915050565b61313181612f1e565b811461313c57600080fd5b50565b60008135905061314e81613128565b92915050565b60006020828403121561316a57613169612da2565b5b60006131788482850161313f565b91505092915050565b61318a81612e87565b82525050565b60006020820190506131a56000830184613181565b92915050565b600080604083850312156131c2576131c1612da2565b5b60006131d085828601612eb0565b92505060206131e18582860161313f565b9150509250929050565b60008060006060848603121561320457613203612da2565b5b600061321286828701612eb0565b935050602061322386828701612eb0565b92505060406132348682870161313f565b9150509250925092565b61324781612f1e565b82525050565b60006080820190506132626000830187613181565b61326f602083018661323e565b61327c604083018561323e565b6132896060830184612e3d565b95945050505050565b60006020820190506132a7600083018461323e565b92915050565b600081519050919050565b600082825260208201905092915050565b6000819050602082019050919050565b6132e281612e87565b82525050565b600060808301600083015161330060008601826132d9565b5060208301516133136020860182612f28565b506040830151848203604086015261332b8282612f8e565b91505060608301516133406060860182612f28565b508091505092915050565b600061335783836132e8565b905092915050565b6000602082019050919050565b6000613377826132ad565b61338181856132b8565b935083602082028501613393856132c9565b8060005b858110156133cf57848403895281516133b0858261334b565b94506133bb8361335f565b925060208a01995050600181019050613397565b50829750879550505050505092915050565b600060208201905081810360008301526133fb818461336c565b905092915050565b6000806040838503121561341a57613419612da2565b5b60006134288582860161313f565b92505060206134398582860161313f565b9150509250929050565b61344c81612e31565b811461345757600080fd5b50565b60008135905061346981613443565b92915050565b6000806040838503121561348657613485612da2565b5b600061349485828601612eb0565b92505060206134a58582860161345a565b9150509250929050565b600080fd5b600080fd5b7f4e487b7100000000000000000000000000000000000000000000000000000000600052604160045260246000fd5b6134f182612f7d565b810181811067ffffffffffffffff821117156135105761350f6134b9565b5b80604052505050565b6000613523612d98565b905061352f82826134e8565b919050565b600067ffffffffffffffff82111561354f5761354e6134b9565b5b61355882612f7d565b9050602081019050919050565b82818337600083830152505050565b600061358761358284613534565b613519565b9050828152602081018484840111156135a3576135a26134b4565b5b6135ae848285613565565b509392505050565b600082601f8301126135cb576135ca6134af565b5b81356135db848260208601613574565b91505092915050565b600080600080608085870312156135fe576135fd612da2565b5b600061360c87828801612eb0565b945050602061361d87828801612eb0565b935050604061362e8782880161313f565b925050606085013567ffffffffffffffff81111561364f5761364e612da7565b5b61365b878288016135b6565b91505092959194509250565b6000806040838503121561367e5761367d612da2565b5b600061368c85828601612eb0565b925050602061369d85828601612eb0565b9150509250929050565b600067ffffffffffffffff8211156136c2576136c16134b9565b5b6136cb82612f7d565b9050602081019050919050565b60006136eb6136e6846136a7565b613519565b905082815260208101848484011115613707576137066134b4565b5b613712848285613565565b509392505050565b600082601f83011261372f5761372e6134af565b5b813561373f8482602086016136d8565b91505092915050565b60006020828403121561375e5761375d612da2565b5b600082013567ffffffffffffffff81111561377c5761377b612da7565b5b6137888482850161371a565b91505092915050565b7f546865726520617265206e6f204e4654206f776e656420627920557365720000600082015250565b60006137c7601e836130bc565b91506137d282613791565b602082019050919050565b600060208201905081810360008301526137f6816137ba565b9050919050565b7f4e487b7100000000000000000000000000000000000000000000000000000000600052603260045260246000fd5b7f4e487b7100000000000000000000000000000000000000000000000000000000600052601160045260246000fd5b600061386682612f1e565b91507fffffffffffffffffffffffffffffffffffffffffffffffffffffffffffffffff82036138985761389761382c565b5b600182019050919050565b7f4e487b7100000000000000000000000000000000000000000000000000000000600052602260045260246000fd5b600060028204905060018216806138ea57607f821691505b6020821081036138fd576138fc6138a3565b5b50919050565b7f4552433732313a20617070726f76616c20746f2063757272656e74206f776e6560008201527f7200000000000000000000000000000000000000000000000000000000000000602082015250565b600061395f6021836130bc565b915061396a82613903565b604082019050919050565b6000602082019050818103600083015261398e81613952565b9050919050565b7f4552433732313a20617070726f76652063616c6c6572206973206e6f7420746f60008201527f6b656e206f776e6572206f7220617070726f76656420666f7220616c6c000000602082015250565b60006139f1603d836130bc565b91506139fc82613995565b604082019050919050565b60006020820190508181036000830152613a20816139e4565b9050919050565b7f4552433732313a2063616c6c6572206973206e6f7420746f6b656e206f776e6560008201527f72206f7220617070726f76656400000000000000000000000000000000000000602082015250565b6000613a83602d836130bc565b9150613a8e82613a27565b604082019050919050565b60006020820190508181036000830152613ab281613a76565b9050919050565b600081905092915050565b50565b6000613ad4600083613ab9565b9150613adf82613ac4565b600082019050919050565b6000613af582613ac7565b9150819050919050565b6000606082019050613b146000830186613181565b613b216020830185613181565b613b2e604083018461323e565b949350505050565b7f4552433732313a20696e76616c696420746f6b656e2049440000000000000000600082015250565b6000613b6c6018836130bc565b9150613b7782613b36565b602082019050919050565b60006020820190508181036000830152613b9b81613b5f565b9050919050565b7f4552433732313a2061646472657373207a65726f206973206e6f74206120766160008201527f6c6964206f776e65720000000000000000000000000000000000000000000000602082015250565b6000613bfe6029836130bc565b9150613c0982613ba2565b604082019050919050565b60006020820190508181036000830152613c2d81613bf1565b9050919050565b6000606082019050613c49600083018661323e565b613c566020830185613181565b613c63604083018461323e565b949350505050565b600081905092915050565b6000613c8182612f37565b613c8b8185613c6b565b9350613c9b818560208601612f53565b80840191505092915050565b6000613cb38285613c76565b9150613cbf8284613c76565b91508190509392505050565b7f4f776e61626c653a206e6577206f776e657220697320746865207a65726f206160008201527f6464726573730000000000000000000000000000000000000000000000000000602082015250565b6000613d276026836130bc565b9150613d3282613ccb565b604082019050919050565b60006020820190508181036000830152613d5681613d1a565b9050919050565b6000606082019050613d726000830186613181565b613d7f602083018561323e565b8181036040830152613d9181846130cd565b9050949350505050565b7f4552433732313a207472616e736665722066726f6d20696e636f72726563742060008201527f6f776e6572000000000000000000000000000000000000000000000000000000602082015250565b6000613df76025836130bc565b9150613e0282613d9b565b604082019050919050565b60006020820190508181036000830152613e2681613dea565b9050919050565b7f4552433732313a207472616e7366657220746f20746865207a65726f2061646460008201527f7265737300000000000000000000000000000000000000000000000000000000602082015250565b6000613e896024836130bc565b9150613e9482613e2d565b604082019050919050565b60006020820190508181036000830152613eb881613e7c565b9050919050565b7f4f776e61626c653a2063616c6c6572206973206e6f7420746865206f776e6572600082015250565b6000613ef56020836130bc565b9150613f0082613ebf565b602082019050919050565b60006020820190508181036000830152613f2481613ee8565b9050919050565b6000613f3682612f1e565b9150613f4183612f1e565b9250828202613f4f81612f1e565b91508282048414831517613f6657613f6561382c565b5b5092915050565b7f4e487b7100000000000000000000000000000000000000000000000000000000600052601260045260246000fd5b6000613fa782612f1e565b9150613fb283612f1e565b925082613fc257613fc1613f6d565b5b828204905092915050565b7f4552433732313a20617070726f766520746f2063616c6c657200000000000000600082015250565b60006140036019836130bc565b915061400e82613fcd565b602082019050919050565b6000602082019050818103600083015261403281613ff6565b9050919050565b7f4552433732313a207472616e7366657220746f206e6f6e20455243373231526560008201527f63656976657220696d706c656d656e7465720000000000000000000000000000602082015250565b60006140956032836130bc565b91506140a082614039565b604082019050919050565b600060208201905081810360008301526140c481614088565b9050919050565b7f45524337323155524953746f726167653a2055524920736574206f66206e6f6e60008201527f6578697374656e7420746f6b656e000000000000000000000000000000000000602082015250565b6000614127602e836130bc565b9150614132826140cb565b604082019050919050565b600060208201905081810360008301526141568161411a565b9050919050565b60008190508160005260206000209050919050565b60006020601f8301049050919050565b600082821b905092915050565b6000600883026141bf7fffffffffffffffffffffffffffffffffffffffffffffffffffffffffffffffff82614182565b6141c98683614182565b95508019841693508086168417925050509392505050565b6000819050919050565b60006142066142016141fc84612f1e565b6141e1565b612f1e565b9050919050565b6000819050919050565b614220836141eb565b61423461422c8261420d565b84845461418f565b825550505050565b600090565b61424961423c565b614254818484614217565b505050565b5b818110156142785761426d600082614241565b60018101905061425a565b5050565b601f8211156142bd5761428e8161415d565b61429784614172565b810160208510156142a6578190505b6142ba6142b285614172565b830182614259565b50505b505050565b600082821c905092915050565b60006142e0600019846008026142c2565b1980831691505092915050565b60006142f983836142cf565b9150826002028217905092915050565b61431282612f37565b67ffffffffffffffff81111561432b5761432a6134b9565b5b61433582546138d2565b61434082828561427c565b600060209050601f8311600181146143735760008415614361578287015190505b61436b85826142ed565b8655506143d3565b601f1984166143818661415d565b60005b828110156143a957848901518255600182019150602085019450602081019050614384565b868310156143c657848901516143c2601f8916826142cf565b8355505b6001600288020188555050505b505050505050565b60006143e682612f1e565b91506143f183612f1e565b92508282039050818111156144095761440861382c565b5b92915050565b7f4e487b7100000000000000000000000000000000000000000000000000000000600052603160045260246000fd5b600081519050919050565b600082825260208201905092915050565b60006144658261443e565b61446f8185614449565b935061447f818560208601612f53565b61448881612f7d565b840191505092915050565b60006080820190506144a86000830187613181565b6144b56020830186613181565b6144c2604083018561323e565b81810360608301526144d4818461445a565b905095945050505050565b6000815190506144ee81612dd8565b92915050565b60006020828403121561450a57614509612da2565b5b6000614518848285016144df565b91505092915050565b7f4552433732313a206d696e7420746f20746865207a65726f2061646472657373600082015250565b60006145576020836130bc565b915061456282614521565b602082019050919050565b600060208201905081810360008301526145868161454a565b9050919050565b7f4552433732313a20746f6b656e20616c7265616479206d696e74656400000000600082015250565b60006145c3601c836130bc565b91506145ce8261458d565b602082019050919050565b600060208201905081810360008301526145f2816145b6565b905091905056fea26469706673582212204e12928c41f1f935c9841779e4ddcbf8cb62f881c11abe54c6c09237beaaa27e64736f6c63430008130033",
  "linkReferences": {},
  "deployedLinkReferences": {}
}